{
  "contractName": "Calculator",
  "abi": [
    {
      "inputs": [
        {
          "internalType": "address",
          "name": "adderContract",
          "type": "address"
        },
        {
          "internalType": "address",
          "name": "suberContract",
          "type": "address"
        },
        {
          "internalType": "address",
          "name": "multiplierContract",
          "type": "address"
        },
        {
          "internalType": "address",
          "name": "divisorContract",
          "type": "address"
        }
      ],
      "stateMutability": "nonpayable",
      "type": "constructor"
    },
    {
      "inputs": [
        {
          "internalType": "uint256",
          "name": "nb1",
          "type": "uint256"
        },
        {
          "internalType": "uint256",
          "name": "nb2",
          "type": "uint256"
        }
      ],
      "name": "add",
      "outputs": [
        {
          "internalType": "uint256",
          "name": "",
          "type": "uint256"
        }
      ],
      "stateMutability": "view",
      "type": "function",
      "constant": true
    },
    {
      "inputs": [
        {
          "internalType": "uint256",
          "name": "nb1",
          "type": "uint256"
        },
        {
          "internalType": "uint256",
          "name": "nb2",
          "type": "uint256"
        }
      ],
      "name": "sub",
      "outputs": [
        {
          "internalType": "uint256",
          "name": "",
          "type": "uint256"
        }
      ],
      "stateMutability": "view",
      "type": "function",
      "constant": true
    },
    {
      "inputs": [
        {
          "internalType": "uint256",
          "name": "nb1",
          "type": "uint256"
        },
        {
          "internalType": "uint256",
          "name": "nb2",
          "type": "uint256"
        }
      ],
      "name": "mul",
      "outputs": [
        {
          "internalType": "uint256",
          "name": "",
          "type": "uint256"
        }
      ],
      "stateMutability": "view",
      "type": "function",
      "constant": true
    },
    {
      "inputs": [
        {
          "internalType": "uint256",
          "name": "nb1",
          "type": "uint256"
        },
        {
          "internalType": "uint256",
          "name": "nb2",
          "type": "uint256"
        }
      ],
      "name": "div",
      "outputs": [
        {
          "internalType": "uint256",
          "name": "",
          "type": "uint256"
        }
      ],
      "stateMutability": "view",
      "type": "function",
      "constant": true
    }
  ],
  "bytecode": "0x608060405234801561001057600080fd5b5060405161062e38038061062e8339818101604052608081101561003357600080fd5b8101908080519060200190929190805190602001909291908051906020019092919080519060200190929190505050836000806101000a81548173ffffffffffffffffffffffffffffffffffffffff021916908373ffffffffffffffffffffffffffffffffffffffff16021790555082600160006101000a81548173ffffffffffffffffffffffffffffffffffffffff021916908373ffffffffffffffffffffffffffffffffffffffff16021790555081600260006101000a81548173ffffffffffffffffffffffffffffffffffffffff021916908373ffffffffffffffffffffffffffffffffffffffff16021790555080600360006101000a81548173ffffffffffffffffffffffffffffffffffffffff021916908373ffffffffffffffffffffffffffffffffffffffff160217905550505050506104b6806101786000396000f3fe608060405234801561001057600080fd5b506004361061004c5760003560e01c8063771602f714610051578063a391c15b1461009d578063b67d77c5146100e9578063c8a4ac9c14610135575b600080fd5b6100876004803603604081101561006757600080fd5b810190808035906020019092919080359060200190929190505050610181565b6040518082815260200191505060405180910390f35b6100d3600480360360408110156100b357600080fd5b810190808035906020019092919080359060200190929190505050610240565b6040518082815260200191505060405180910390f35b61011f600480360360408110156100ff57600080fd5b810190808035906020019092919080359060200190929190505050610300565b6040518082815260200191505060405180910390f35b61016b6004803603604081101561014b57600080fd5b8101908080359060200190929190803590602001909291905050506103c0565b6040518082815260200191505060405180910390f35b60008060009054906101000a900473ffffffffffffffffffffffffffffffffffffffff1673ffffffffffffffffffffffffffffffffffffffff1663771602f784846040518363ffffffff1660e01b8152600401808381526020018281526020019250505060206040518083038186803b1580156101fd57600080fd5b505afa158015610211573d6000803e3d6000fd5b505050506040513d602081101561022757600080fd5b8101908080519060200190929190505050905092915050565b6000600360009054906101000a900473ffffffffffffffffffffffffffffffffffffffff1673ffffffffffffffffffffffffffffffffffffffff1663a391c15b84846040518363ffffffff1660e01b8152600401808381526020018281526020019250505060206040518083038186803b1580156102bd57600080fd5b505afa1580156102d1573d6000803e3d6000fd5b505050506040513d60208110156102e757600080fd5b8101908080519060200190929190505050905092915050565b6000600160009054906101000a900473ffffffffffffffffffffffffffffffffffffffff1673ffffffffffffffffffffffffffffffffffffffff1663b67d77c584846040518363ffffffff1660e01b8152600401808381526020018281526020019250505060206040518083038186803b15801561037d57600080fd5b505afa158015610391573d6000803e3d6000fd5b505050506040513d60208110156103a757600080fd5b8101908080519060200190929190505050905092915050565b6000600260009054906101000a900473ffffffffffffffffffffffffffffffffffffffff1673ffffffffffffffffffffffffffffffffffffffff1663c8a4ac9c84846040518363ffffffff1660e01b8152600401808381526020018281526020019250505060206040518083038186803b15801561043d57600080fd5b505afa158015610451573d6000803e3d6000fd5b505050506040513d602081101561046757600080fd5b810190808051906020019092919050505090509291505056fea26469706673582212200264abf7adde3c20108b839b0b8508c140674c38a93e8f3874b151505e71577164736f6c634300060c0033",
  "immutableReferences": {},
  "source": "// SPDX-License-Identifier: MIT\npragma solidity ^0.6.0;\nimport \"./Adder.sol\";\nimport \"./Suber.sol\";\nimport \"./Multiplier.sol\";\nimport \"./Divisor.sol\";\n\ncontract Calculator {\n    Adder private _adderContract;\n    Suber private _suberContract;\n    Multiplier private _multiplierContract;\n    Divisor private _divisorContract;\n\n    constructor(\n        address adderContract,\n        address suberContract,\n        address multiplierContract,\n        address divisorContract\n    ) public {\n        _adderContract = Adder(adderContract);\n        _suberContract = Suber(suberContract);\n        _multiplierContract = Multiplier(multiplierContract);\n        _divisorContract = Divisor(divisorContract);\n    }\n\n    function add(uint256 nb1, uint256 nb2) public view returns (uint256) {\n        return _adderContract.add(nb1, nb2);\n    }\n\n    function sub(uint256 nb1, uint256 nb2) public view returns (uint256) {\n        return _suberContract.sub(nb1, nb2);\n    }\n\n    function mul(uint256 nb1, uint256 nb2) public view returns (uint256) {\n        return _multiplierContract.mul(nb1, nb2);\n    }\n\n    function div(uint256 nb1, uint256 nb2) public view returns (uint256) {\n        return _divisorContract.div(nb1, nb2);\n    }\n}\n",
  "sourcePath": "/home/bench/AlyraProjet/Calculator-sol/contracts/Calculator.sol",
  "compiler": {
    "name": "solc",
    "version": "0.6.12+commit.27d51765.Linux.g++"
  },
  "schemaVersion": "3.3.1",
  "updatedAt": "2020-10-30T17:44:18.717Z",
  "networkType": "ethereum",
  "devdoc": {
    "kind": "dev",
    "methods": {},
    "version": 1
  },
  "userdoc": {
    "kind": "user",
    "methods": {},
    "version": 1
  }
}